:100000000C9462000C948A000C948A000C948A0070
:100010000C948A000C948A000C948A000C948A0038
:100020000C948A000C948A000C948A000C948A0028
:100030000C948A000C948A000C948A000C948A0018
:100040000C9438030C948A000C94A8030C9482033B
:100050000C948A000C948A000C948A000C948A00F8
:100060000C948A000C948A000000000023002600F3
:10007000290000000000240027002A0000000000E2
:10008000250028002B0004040404040404040202D4
:100090000202020203030303030301020408102007
:1000A0004080010204081020010204081020000012
:1000B0000008000201000003040700000000000027
:1000C00000001F0411241FBECFEFD8E0DEBFCDBF5C
:1000D00011E0A0E0B1E0E2E5F2E102C005900D928E
:1000E000AA33B107D9F721E0AAE3B1E001C01D921C
:1000F000A63EB207E1F710E0C2E6D0E004C02197C7
:10010000FE010E942507C136D107C9F70E945A0493
:100110000C9427090C94000090E0FC01E255FF4F7D
:100120002491FC01E656FF4F3491FC01EA57FF4F42
:10013000E491EE2309F43CC0222339F1233091F0FD
:1001400038F42130A9F0223001F584B58F7D12C03A
:10015000273091F02830A1F02430B9F4809180004C
:100160008F7D03C0809180008F77809380000DC0C9
:1001700084B58F7784BD09C08091B0008F7703C0AC
:100180008091B0008F7D8093B000F0E0EE0FFF1FF4
:10019000E458FF4FA591B4919FB7F894611104C042
:1001A0008C913095382302C0EC913E2B3C939FBF3D
:1001B0000895CF93DF9390E0FC01E656FF4F249122
:1001C000FC01EA57FF4F8491882361F190E0880F8A
:1001D000991FFC01EE58FF4FC591D491FC01E458E2
:1001E000FF4FA591B491611109C09FB7F894888120
:1001F000209582238883EC912E230BC0623061F41A
:100200009FB7F8948881322F309583238883EC91AF
:100210002E2B2C939FBF06C08FB7F894E8812E2B0E
:1002200028838FBFDF91CF9108953FB7F8948091D5
:100230003F0190914001A0914101B091420126B54A
:10024000A89B05C02F3F19F00196A11DB11D3FBF0E
:10025000BA2FA92F982F8827820F911DA11DB11D9C
:10026000BC01CD0142E0660F771F881F991F4A9598
:10027000D1F70895CF92DF92EF92FF920F931F93E1
:10028000CF93DF936C017A018B01C0E0D0E0CE15F3
:10029000DF0581F0D8016D918D01D601ED91FC91C2
:1002A0000190F081E02DC6010995892B11F021966E
:1002B000EECF7E01C701DF91CF911F910F91FF908B
:1002C000EF90DF90CF900895CF93DF93FC014481AE
:1002D00055816081718183E491E00E943A01EC01D3
:1002E00042E050E068E171E083E491E00E943A016D
:1002F0008C0F9D1FDF91CF910895089580E090E0CD
:100300000895FC01538D448D252F30E0842F90E01B
:10031000821B930B541710F0CF9608950197089500
:10032000FC01918D828D981761F0828DDF01A80FFD
:10033000B11D5D968C91928D9F5F9F73928F90E01F
:1003400008958FEF9FEF0895FC01918D828D98178E
:1003500031F0828DE80FF11D858D90E008958FEFCB
:100360009FEF0895FC01918D228D892F90E0805C94
:100370009F4F821B91098F739927089583E491E021
:100380000E94B20121E0892B09F420E0822F089518
:10039000FC01848DDF01A80FB11DA35ABF4F2C9122
:1003A000848D90E001968F739927848FA689B789F1
:1003B0002C93A089B1898C91837080648C93938DE8
:1003C000848D981306C00288F389E02D80818F7D8B
:1003D00080830895EF92FF920F931F93CF93DF9343
:1003E000EC0181E0888F9B8D8C8D981305C0E88986
:1003F000F989808185FD26C0F62E0B8D10E00F5FF8
:100400001F4F0F731127E02E8C8DE8120CC00FB612
:1004100007FCFACFE889F989808185FFF5CFCE0105
:100420000E94C801F1CF8B8DFE01E80FF11DE35A48
:10043000FF4FF0829FB7F8940B8FEA89FB89808188
:1004400080620AC09FB7F894EE89FF896083E889CB
:10045000F98980818370806480839FBF81E090E010
:10046000DF91CF911F910F91FF90EF900895CF935F
:10047000DF93EC01888D8823C9F0EA89FB898081AC
:1004800085FD05C0A889B9898C9186FD0FC00FB67E
:1004900007FCF5CF808185FFF2CFA889B9898C91BF
:1004A00085FFEDCFCE010E94C801E7CFDF91CF914C
:1004B000089580E090E0892B29F00E94BE0181110F
:1004C0000C9400000895CF93DF93EC01888199810B
:1004D000009711F00E94C307198218821D821C82A6
:1004E0001B821A82DF91CF9108950E9412090F9307
:1004F0001F93CF93DF93EC0188819981009729F0B6
:100500002A813B812617370788F48B016F5F7F4F65
:100510000E944C08009761F0998388831B830A83AB
:100520002C813D81232B11F4FC01108281E001C05C
:1005300080E0DF91CF911F910F910895EF92FF928C
:100540000F931F93CF93DF936115710511F480E032
:100550001CC041155105C1F07B01EC018C819D81CE
:100560008A01080F191FB801CE010E947702882363
:1005700071F3288139818C819D81B701820F931F8E
:100580000E9420091D830C8381E0DF91CF911F9190
:100590000F91FF90EF900895EF92FF920F931F93AA
:1005A000CF93DF93CDB7DEB728970FB6F894DEBFB1
:1005B0000FBECDBF7C01CB014AE08E010F5F1F4F04
:1005C000B8010E945606F80101900020E9F7319722
:1005D000AF01401B510BB801C7010E949E0281115F
:1005E00003C0C7010E946302C70128960FB6F894A2
:1005F000DEBF0FBECDBFDF91CF911F910F91FF9056
:10060000EF900895EF92FF920F931F93CF93DF9394
:10061000EC017B018A01BA010E947702811104C0BA
:10062000CE010E94630207C01D830C83B70188813D
:1006300099810E942009CE01DF91CF911F910F91E6
:10064000FF90EF900895FC011182108213821282B4
:10065000158214826115710551F0FB010190002093
:10066000E9F73197AF01461B570B0C94020308952D
:100670001F920F920FB60F9211242F933F938F93D7
:100680009F93AF93BF9380913B0190913C01A091C8
:100690003D01B0913E0130913A0123E0230F2D3707
:1006A00020F40196A11DB11D05C026E8230F029676
:1006B000A11DB11D20933A0180933B0190933C0111
:1006C000A0933D01B0933E0180913F019091400184
:1006D000A0914101B09142010196A11DB11D8093ED
:1006E0003F0190934001A0934101B0934201BF911B
:1006F000AF919F918F913F912F910F900FBE0F90CF
:100700001F9018951F920F920FB60F9211242F93DE
:100710003F934F935F936F937F938F939F93AF9389
:10072000BF93EF93FF9383E491E00E94C801FF9190
:10073000EF91BF91AF919F918F917F916F915F9159
:100740004F913F912F910F900FBE0F901F901895D2
:100750001F920F920FB60F9211242F938F939F9396
:10076000EF93FF93E0915301F09154018081E09168
:100770005901F0915A0182FD12C0908180915C0173
:100780008F5F8F7320915D01821751F0E0915C01C2
:10079000F0E0ED5BFE4F958F80935C0101C080819E
:1007A000FF91EF919F918F912F910F900FBE0F901E
:1007B0001F901895CF92DF92EF92FF920F931F93A5
:1007C000E82FF92F05C0015011092109310961F104
:1007D000908196239417B9F305C00150110921099E
:1007E000310911F1908196239413F7CFC12CD12CAC
:1007F000E12CF12C0AC08FEFC81AD80AE80AF80ACF
:100800000C151D052E053F0579F080818623841780
:1008100091F36C2D7D2D8E2D9F2D1F910F91FF90AB
:10082000EF90DF90CF90089560E070E080E090E07E
:100830001F910F91FF90EF90DF90CF900895E3E428
:10084000F1E01382128288EE93E0A0E0B0E08483AE
:100850009583A683B7838AE091E09183808385ECBA
:1008600090E09587848784EC90E09787868780EC7A
:1008700090E0918B808B81EC90E0938B828B82EC6B
:1008800090E0958B848B86EC90E0978B868B118E15
:10089000128E138E148E61E082E00E94D90060E017
:1008A00083E00E94D900E0EEF1E082E0808383E003
:1008B00081830895CF93DF93CDB7DEB762970FB6EC
:1008C000F894DEBF0FBECDBF789484B5826084BD3E
:1008D00084B5816084BD85B5826085BD85B5816044
:1008E00085BD80916E00816080936E0010928100C2
:1008F000809181008260809381008091810081607D
:10090000809381008091800081608093800080913D
:10091000B10084608093B1008091B00081608093C9
:10092000B00080917A00846080937A0080917A0090
:10093000826080937A0080917A00816080937A004F
:1009400080917A00806880937A001092C100E091D3
:100950005301F091540182E08083E0914F01F091C6
:1009600050011082E0915101F09152018FEC80838F
:1009700010925B01E0915701F091580186E080836D
:10098000E0915501F0915601808180618083E09172
:100990005501F0915601808188608083E091550176
:1009A000F0915601808180688083E0915501F0913B
:1009B000560180818F7D808361E085E00E94D900AF
:1009C00023E2222E312C3CE1832E912CA12CB12C40
:1009D00060E08091E0010E948C0083E090E001974C
:1009E000F1F761E08091E0010E948C00C101019764
:1009F000F1F760E08091E0010E948C008091E101BC
:100A000090E0FC01E656FF4F6491FC01EA57FF4F6E
:100A1000E491F0E0EE0FFF1FE859FF4F85919491AC
:100A200000E412E42FE030E0462F0E94DA03611563
:100A300071058105910549F0DC01CB010196A11DED
:100A4000B11DBC01CD019F7003C060E070E0CB011F
:100A50002BE330E040E050E00E94F40669017A01A7
:100A6000290120E420937C0080917A0080648093A7
:100A70007A0080917A0086FDFCCF709078006090BB
:100A800079006BE171E0CE0101960E9423036FE1D2
:100A900071E0CE010D960E94230318861F821A86EC
:100AA00019861C861B866D857E856115710531F062
:100AB00049895A89CE0107960E940203B601CE01E8
:100AC00007960E94CC028C014D815E8169817A81FA
:100AD0000E949E02811103C0C8010E946302C801E6
:100AE0000E9464018F8198850E94C3078D859E8531
:100AF0000E94C30789819A810E94C3076AE171E05D
:100B0000CE0101960E9423036CE271E0CE010D96A6
:100B10000E94230318861F821A8619861C861B864C
:100B20006D857E856115710531F049895A89CE013F
:100B300007960E940203672D70E07629CE01079682
:100B40000E94CC028C014D815E8169817A810E9474
:100B50009E02811103C0C8010E946302C8010E9465
:100B600064018F8198850E94C3078D859E850E94B0
:100B7000C30789819A810E94C30782E04816510405
:100B80003CF096012F3131052CF02EE130E002C00F
:100B900022E030E0C901330FAA0BBB0B9C01AD0171
:100BA0002250310941095109A3E8BFEF0E94B8065C
:100BB000A50194010E948B0669017A01EDE7CE0E32
:100BC000D11CE11CF11C61E085E00E94D900C11438
:100BD000D10409F43EC0E3EBF0E084918330F9F0F6
:100BE00048F48130B9F08230A1F584B5806284BDCB
:100BF000C8BC33C08730E9F0883019F1843049F53A
:100C000080918000806280938000D0928B00C0929F
:100C10008A0023C084B5806884BDC7BC1EC0809193
:100C20008000806880938000D0928900C092880004
:100C300014C08091B00080688093B000C092B3006F
:100C40000CC08091B00080628093B000C092B4006C
:100C500004C060E085E00E948C000E9415012B0119
:100C60003C0184E6C82ED12CE12CF12C0E94150108
:100C7000DC01CB0184199509A609B709883E934088
:100C8000A105B10598F3F1E0CF1AD108E108F10808
:100C900028EE420E23E0521E611C711CC114D104C7
:100CA000E104F10419F70E94590292CEBB274A30A1
:100CB00031F4992322F4BDE2909581959F4F0C94D5
:100CC0006206BB27FB015527AA27880F991FAA1F79
:100CD000A41710F0A41B83955051B9F7A05DAA3357
:100CE00008F0A95DA193009779F7B111B193119222
:100CF000CB010C947B06DC01FC01672F71917723FB
:100D0000E1F7329704C07C916D9370836291AE17C6
:100D1000BF07C8F30895052E97FB1EF400940E94A8
:100D2000A20657FD07D00E94F40607FC03D04EF43C
:100D30000C94A20650954095309521953F4F4F4F0A
:100D40005F4F089590958095709561957F4F8F4F77
:100D50009F4F08950E941607A59F900DB49F900D78
:100D6000A49F800D911D11240895B7FF0C94AA062D
:100D70000E94AA06821B930B08952F923F924F92D6
:100D80005F926F927F928F929F92AF92BF92CF921B
:100D9000DF92EF92FF920F931F93CF93DF93CDB724
:100DA000DEB7CA1BDB0B0FB6F894DEBF0FBECDBF9C
:100DB00009942A88398848885F846E847D848C846D
:100DC0009B84AA84B984C884DF80EE80FD800C8176
:100DD0001B81AA81B981CE0FD11D0FB6F894DEBF59
:100DE0000FBECDBFED010895A1E21A2EAA1BBB1BB9
:100DF000FD010DC0AA1FBB1FEE1FFF1FA217B307E7
:100E0000E407F50720F0A21BB30BE40BF50B661FFC
:100E1000771F881F991F1A9469F7609570958095C0
:100E200090959B01AC01BD01CF010895A29FB00137
:100E3000B39FC001A39F700D811D1124911DB29F0E
:100E4000700D811D1124911D0895EE0FFF1F059057
:100E5000F491E02D09940F931F93CF93DF93823089
:100E6000910510F482E090E0E091E401F091E50159
:100E700020E030E0A0E0B0E0309719F140815181EE
:100E80000281138148175907C8F08417950769F440
:100E9000109731F012960C93129713961C9327C05B
:100EA0000093E4011093E50122C02115310519F0EA
:100EB0004217530718F49A01BD01EF01DF01F80151
:100EC000DBCF21153105F9F0281B390B2430310512
:100ED00080F48A819B816115710521F0FB01938368
:100EE000828304C09093E5018093E401FE01329671
:100EF00044C0FE01E20FF31F819391932250310908
:100F0000398328833AC02091E2013091E301232BF9
:100F100041F420910201309103013093E3012093C9
:100F2000E20120910001309101012115310541F4C8
:100F30002DB73EB74091040150910501241B350B9C
:100F4000E091E201F091E301E217F307A0F42E1B18
:100F50003F0B2817390778F0AC014E5F5F4F24171D
:100F6000350748F04E0F5F1F5093E3014093E201B5
:100F70008193919302C0E0E0F0E0CF01DF91CF9147
:100F80001F910F910895CF93DF93009709F481C0CB
:100F9000FC01329713821282A091E401B091E50125
:100FA000109781F420813181820F931F2091E201FB
:100FB0003091E3012817390751F5F093E301E093ED
:100FC000E20167C0ED0120E030E0CE17DF0740F41A
:100FD0004A815B819E0141155105F1F0EA01F5CF8F
:100FE000D383C28340815181840F951FC817D907CD
:100FF00059F488819981840F951F0296918380838B
:101000008A819B81938382832115310529F4F09392
:10101000E501E093E4013DC0E901FB83EA834991E6
:101020005991C40FD51FEC17FD0761F480819181A0
:10103000840F951F0296E9019983888382819381A9
:101040009B838A83E0E0F0E012968D919C91139748
:10105000009719F0FD01DC01F7CF8D919C9111975C
:101060009D012E5F3F4F820F931F2091E20130912F
:10107000E3012817390769F4309729F41092E50144
:101080001092E40102C013821282B093E301A09394
:10109000E201DF91CF910895A0E0B0E0E2E5F8E051
:1010A0000C94C106EC01009721F4CB010E942B07A0
:1010B000B4C0FC01E60FF71F9C0122503109E21772
:1010C000F30708F4A8C0D9010D911C9111970617D8
:1010D0001707B0F00530110508F49BC0C80104974C
:1010E0008617970708F495C002501109061B170BC5
:1010F000019311936D937C93CF010E94C30789C024
:101100005B01A01AB10A4C01800E911EA091E4016E
:10111000B091E501612C712CE12CF12C109709F4B0
:1011200046C08D919C911197A815B905B1F56C0138
:1011300042E0C40ED11CCA14DB0478F14C018A18B9
:101140009B08640142E0C40ED11C1296BC90129719
:101150001396AC91B5E0CB16D10440F0B282A383D4
:1011600091828082D9016D937C9309C00E5F1F4FDD
:10117000800F911FF90191838083EB2DFA2FE114E9
:10118000F10431F0D7011396FC93EE93129741C00E
:10119000F093E501E093E4013CC06816790608F499
:1011A0003C017D0112960D90BC91A02DB7CF80918E
:1011B000E2019091E30188169906E1F4661677063C
:1011C000C8F48091000190910101009741F48DB71E
:1011D0009EB74091040150910501841B950BE817BF
:1011E000F907C8F4F093E301E093E201F901718398
:1011F00060830FC0CB010E942B077C01009759F040
:10120000A801BE010E941709CE010E94C307C701B1
:1012100004C0CE0102C080E090E0CDB7DEB7EEE0C2
:101220000C94DD0681E090E0F8940C942709FB0112
:10123000DC0102C001900D9241505040D8F7089552
:10124000FB01DC0101900D920020E1F70895F89474
:02125000FFCFCE
:101252000000E601800000000000EA013A0181017D
:101262003702B2019001A4010D0A0020636D00440F
:10127200697374C3A26E6369613A200054656D702C
:0A128200657261747572613A200014
:00000001FF
