:100000000C940C010C9434010C9434010C943401C4
:100010000C9434010C9434010C9434010C9434018C
:100020000C9434010C9434010C9434010C9434017C
:100030000C9434010C9434010C9434010C9434016C
:100040000C9455040C9434010C94C5040C949F0436
:100050000C9434010C9434010C9434010C9434014C
:100060000C9434010C94340108000000BE92244921
:10007000123EABAAAA2ABECDCCCC4C3E00000080DA
:10008000BEABAAAAAA3E00000000BF000000803F4D
:100090000000000000084178D3BB4387D1133D190D
:1000A0000E3CC3BD4282AD2B3E68EC8276BED98F3A
:1000B000E1A93E4C80EFFFBE01C4FF7F3F0000007E
:1000C000000000407A10F35A00A0724E1809001088
:1000D000A5D4E80000E87648170000E40B540200BD
:1000E00000CA9A3B000000E1F505000080969800E8
:1000F000000040420F000000A08601000000102711
:1001000000000000E80300000000640000000000A0
:100110000A00000000000100000000002C76D888D2
:10012000DC674F0823DFC1DFAE59E1B1B796E5E3E5
:10013000E453C63AE651997696E8E6C28426EB89FE
:100140008C9B62ED407C6FFCEFBC9C9F40F2BAA59B
:100150006FA5F490055A2AF75C936B6CF9676DC133
:100160001BFCE0E40D47FEF520E6B500D0ED902E37
:100170000300943577050080841E080000204E0A95
:10018000000000C80C333333330F986E12831141D3
:10019000EF8D2114893BE65516CFFEE6DB18D1849E
:1001A0004B381BF77C1D901DA4BBE42420328472C5
:1001B0005E228100C9F124ECA1E53D27000000008A
:1001C00023002600290000000000240027002A0048
:1001D00000000000250028002B000404040404048F
:1001E00004040202020202020303030303030102E6
:1001F00004081020408001020408102001020408B5
:1002000010200000000800020100000304070000A5
:100210000000000000003C0511241FBECFEFD8E015
:10022000DEBFCDBF11E0A0E0B1E0EAE1FFE102C036
:1002300005900D92A634B107D9F721E0A6E4B1E00C
:1002400001C01D92AA3FB207E1F711E0CCE0D1E076
:1002500004C02197FE010E94890DCB30D107C9F758
:100260000E9477050C948B0F0C94000090E0FC0129
:10027000EE5FFD4F2491FC01E251FE4F3491FC01F1
:10028000E652FE4FE491EE2309F43CC0222339F1FB
:10029000233091F038F42130A9F0223001F584B5F3
:1002A0008F7D12C0273091F02830A1F02430B9F4AE
:1002B000809180008F7D03C0809180008F77809334
:1002C00080000DC084B58F7784BD09C08091B000D7
:1002D0008F7703C08091B0008F7D8093B000F0E0F5
:1002E000EE0FFF1FE053FE4FA591B4919FB7F89416
:1002F000611104C08C913095382302C0EC913E2BE3
:100300003C939FBF0895CF93DF9390E0FC01E251AF
:10031000FE4F2491FC01E652FE4F8491882361F147
:1003200090E0880F991FFC01EA53FE4FC591D491CC
:10033000FC01E053FE4FA591B491611109C09FB734
:10034000F8948881209582238883EC912E230BC01A
:10035000623061F49FB7F8948881322F30958323FF
:100360008883EC912E2B2C939FBF06C08FB7F894F7
:10037000E8812E2B28838FBFDF91CF9108958E3097
:1003800008F08E508770806480937C0080917A00A2
:10039000806480937A0080917A0086FDFCCF809102
:1003A00078002091790090E0922B08953FB7F8945F
:1003B0008091530190915401A0915501B091560143
:1003C00026B5A89B05C02F3F19F00196A11DB11DB0
:1003D0003FBFBA2FA92F982F8827820F911DA11DEB
:1003E000B11DBC01CD0142E0660F771F881F991F28
:1003F0004A95D1F70895CF92DF92EF92FF920F9333
:100400001F93CF93DF936C017A018B01C0E0D0E0A2
:10041000CE15DF0581F0D8016D918D01D601ED91EA
:10042000FC910190F081E02DC6010995892B11F016
:100430002196EECF7E01C701DF91CF911F910F91E1
:10044000FF90EF90DF90CF900895CF93DF93FC0162
:10045000448155816081718187E591E00E94FB01B3
:10046000EC0142E050E068E171E087E591E00E9434
:10047000FB018C0F9D1FDF91CF910895089580E0BF
:1004800090E00895FC01538D448D252F30E0842F9A
:1004900090E0821B930B541710F0CF9608950197AC
:1004A0000895FC01918D828D981761F0828DDF0196
:1004B000A80FB11D5D968C91928D9F5F9F73928F57
:1004C00090E008958FEF9FEF0895FC01918D828D4C
:1004D000981731F0828DE80FF11D858D90E0089519
:1004E0008FEF9FEF0895FC01918D228D892F90E071
:1004F000805C9F4F821B91098F739927089587E530
:1005000091E00E94730221E0892B09F420E0822F00
:100510000895FC01848DDF01A80FB11DA35ABF4FC0
:100520002C91848D90E001968F739927848FA689F2
:10053000B7892C93A089B1898C91837080648C9346
:10054000938D848D981306C00288F389E02D8081F5
:100550008F7D80830895EF92FF920F931F93CF9327
:10056000DF93EC0181E0888F9B8D8C8D981305C003
:10057000E889F989808185FD26C0F62E0B8D10E073
:100580000F5F1F4F0F731127E02E8C8DE8120CC0E8
:100590000FB607FCFACFE889F989808185FFF5CF8E
:1005A000CE010E948902F1CF8B8DFE01E80FF11D73
:1005B000E35AFF4FF0829FB7F8940B8FEA89FB89CB
:1005C000808180620AC09FB7F894EE89FF896083BA
:1005D000E889F98980818370806480839FBF81E08E
:1005E00090E0DF91CF911F910F91FF90EF900895D0
:1005F000CF93DF93EC01888D8823C9F0EA89FB89CA
:10060000808185FD05C0A889B9898C9186FD0FC0C0
:100610000FB607FCF5CF808185FFF2CFA889B98995
:100620008C9185FFEDCFCE010E948902E7CFDF914B
:10063000CF91089580E090E0892B29F00E947F02FD
:1006400081110C9400000895FC01808191810C942B
:10065000270ECF93DF93EC0188819981009711F0E9
:100660000E94270E198218821D821C821B821A8208
:10067000DF91CF9108950E94760F0F931F93CF9330
:10068000DF93EC0188819981009729F02A813B81D1
:100690002617370788F48B016F5F7F4F0E94B00EDB
:1006A000009761F0998388831B830A832C813D81A5
:1006B000232B11F4FC01108281E001C080E0DF9166
:1006C000CF911F910F910895EF92FF920F931F9377
:1006D000CF93DF93EC01198218821B821A821D824C
:1006E0001C826115710521F18B01FB010190002035
:1006F000E9F731977F01E61AF70AB7010E943D0337
:10070000811109C0CE01DF91CF911F910F91FF9010
:10071000EF900C942903FD82EC82B80188819981C5
:10072000DF91CF911F910F91FF90EF900C94840F68
:10073000DF91CF911F910F91FF90EF900895EF926D
:10074000FF920F931F93CF93DF93FC0111821082CE
:1007500013821282158214828617970739F1DB0102
:100760000D911C9111970115110501F1EC011496E1
:10077000ED90FC901597B7010E943D03811109C0CF
:10078000CE01DF91CF911F910F91FF90EF900C94CC
:100790002903FD82EC82B80188819981DF91CF9194
:1007A0001F910F91FF90EF900C94840FDF91CF91E8
:1007B0001F910F91FF90EF900895EF92FF920F938A
:1007C0001F93CF93DF936115710511F480E01CC076
:1007D00041155105C1F07B01EC018C819D818A019D
:1007E000080F191FB801CE010E943D03882371F341
:1007F000288139818C819D81B701820F931F0E94CE
:10080000840F1D830C8381E0DF91CF911F910F91A5
:10081000FF90EF900895CF93DF93EC01FB014481AB
:100820005581608171810E94DD03811103C0CE0179
:100830000E942903CE01DF91CF910895EF92FF929C
:100840000F931F93CF93DF93CDB7DEB764970FB6A7
:10085000F894DEBF0FBECDBF7C01CB01BA018E0183
:100860000F5F1F4F22E044E00E940208FC0101904C
:100870000020E9F73197AF01481B590BBC01C701B4
:100880000E94DD03811103C0C7010E942903C70133
:1008900064960FB6F894DEBF0FBECDBFDF91CF9147
:1008A0001F910F91FF90EF9008951F920F920FB636
:1008B0000F9211242F933F938F939F93AF93BF93E6
:1008C00080914F0190915001A0915101B09152013E
:1008D00030914E0123E0230F2D3720F40196A11D06
:1008E000B11D05C026E8230F0296A11DB11D20935E
:1008F0004E0180934F0190935001A0935101B0930A
:1009000052018091530190915401A0915501B091F1
:1009100056010196A11DB11D80935301909354017E
:10092000A0935501B0935601BF91AF919F918F91C4
:100930003F912F910F900FBE0F901F9018951F920F
:100940000F920FB60F9211242F933F934F935F9303
:100950006F937F938F939F93AF93BF93EF93FF9387
:1009600087E591E00E948902FF91EF91BF91AF91DD
:100970009F918F917F916F915F914F913F912F91B7
:100980000F900FBE0F901F9018951F920F920FB6E9
:100990000F9211242F938F939F93EF93FF93E091E6
:1009A0006701F09168018081E0916D01F0916E0125
:1009B00082FD12C09081809170018F5F8F732091B2
:1009C0007101821751F0E0917001F0E0E95AFE4F99
:1009D000958F8093700101C08081FF91EF919F916D
:1009E0008F912F910F900FBE0F901F901895CF925F
:1009F000DF92EF92FF920F931F93E82FF92F05C01C
:100A0000015011092109310961F190819623941750
:100A1000B9F305C0015011092109310911F1908183
:100A200096239413F7CFC12CD12CE12CF12C0AC0C2
:100A30008FEFC81AD80AE80AF80A0C151D052E050A
:100A40003F0579F080818623841791F36C2D7D2DED
:100A50008E2D9F2D1F910F91FF90EF90DF90CF90E3
:100A6000089560E070E080E090E01F910F91FF90AA
:100A7000EF90DF90CF900895E7E5F1E013821282C6
:100A800088EE93E0A0E0B0E084839583A683B783EB
:100A90008AE091E09183808385EC90E0958784875C
:100AA00084EC90E09787868780EC90E0918B808B38
:100AB00081EC90E0938B828B82EC90E0958B848B21
:100AC00086EC90E0978B868B118E128E138E148E8F
:100AD00061E082E00E94830160E083E00E94830184
:100AE000E4EFF1E082E0808383E081830895CF9397
:100AF000DF93CDB7DEB76E970FB6F894DEBF0FBEAB
:100B0000CDBF789484B5826084BD84B5816084BD96
:100B100085B5826085BD85B5816085BD80916E009B
:100B2000816080936E0010928100809181008260CC
:100B30008093810080918100816080938100809109
:100B400080008160809380008091B10084608093F8
:100B5000B1008091B00081608093B00080917A00F4
:100B6000846080937A0080917A00826080937A001A
:100B700080917A00816080937A0080917A00806809
:100B800080937A001092C100E0916701F0916801B2
:100B900082E08083E0916301F09164011082E09132
:100BA0006501F09166018FEC808310926F01E091F6
:100BB0006B01F0916C0186E08083E0916901F09116
:100BC0006A01808180618083E0916901F0916A010E
:100BD000808188608083E0916901F0916A01808161
:100BE00080688083E0916901F0916A0180818F7D46
:100BF000808361E085E00E94830123E0222E312C76
:100C000033E2832E912CCE0101965C0160E080914D
:100C1000F4010E943601C1010197F1F761E0809172
:100C2000F4010E943601C4010197F1F760E0809160
:100C3000F4010E9436018091F50190E0FC01E2513F
:100C4000FE4F6491FC01E652FE4FE491F0E0EE0F9E
:100C5000FF1FE454FE4F8591949100E412E42FE0CD
:100C600030E0462F0E94F70461157105810591055A
:100C700049F0DC01CB010196A11DB11DBC01CD01E4
:100C80009F7003C060E070E0CB012BE330E040E0F8
:100C900050E00E94ED0B69017A0189018EE00E940B
:100CA000BF01BC01990F880B990B0E948B0A9B0115
:100CB000AC0160E070EC8FE794E40E948B0C20E0C4
:100CC00030E040E85FE30E941E0C20E030E44CE19D
:100CD00056E40E94C60A0E94050D2B013C012CE639
:100CE0003FEC48E554E30E94C60AA30192010E942A
:100CF000C60AA30192010E94C60A6B8F7C8F8D8F5A
:100D00009E8F26ED34E649E759E3C301B2010E9404
:100D1000C60A2BEC38E444E85AE30E941F0C9B01FE
:100D2000AC016B8D7C8D8D8D9E8D0E941F0C9B0167
:100D3000AC0160E070E080E89FE30E948B0C23E34D
:100D400033E948E853E40E941E0C60934A01709313
:100D50004B0180934C0190934D018FE00E94BF01A5
:100D600024E630E0DC010E94820D2FEF33E040E00A
:100D700050E00E94840BCA01B9010E948B0A609363
:100D800046017093470180934801909349016BE1BC
:100D900071E0CE0109960E9464036FE171E0CE011B
:100DA00045960E946403BE016B5E7F4FCE010F9695
:100DB0000E949F034AE0B501C6010E942208F50186
:100DC00001900020E9F73197AF014A195B09B5019D
:100DD000CE010F960E94DD03811104C0CE010F9653
:100DE0000E942903BE01675F7F4FCE010F960E94CC
:100DF0000B040E942502CE010F960E942403CE010F
:100E000045960E942403CE0109960E9424036AE1BC
:100E100071E0C5010E94640340904A0150904B016B
:100E200060904C0170904D016CE271E0CE010F9624
:100E30000E946403BE01615F7F4FCE0109960E944C
:100E40009F03B301A201CE0109960E941E04B501C1
:100E50000E940B040E942502CE0109960E942403E1
:100E6000CE010F960E942403C5010E9424036AE369
:100E700071E0C5010E946403409046015090470113
:100E800060904801709049016CE371E0CE010F96CB
:100E90000E946403BE01615F7F4FCE0109960E94EC
:100EA0009F03B301A201CE0109960E941E04B50161
:100EB0000E940B040E942502CE0109960E94240381
:100EC000CE010F960E942403C5010E942403023024
:100ED00011053CF096012F3131052CF02EE130E068
:100EE00002C022E030E0C901330FAA0BBB0B9C010A
:100EF000AD012250310941095109A3E8BFEF0E9419
:100F0000B10B2CE130E040E050E00E94840B69011D
:100F10007A019DE7C90ED11CE11CF11C61E085E05E
:100F20000E948301C114D10409F43EC0E7E0F2E05D
:100F300084918330F9F048F48130B9F08230A1F522
:100F400084B5806284BDC8BC33C08730E9F0883086
:100F500019F1843049F5809180008062809380008F
:100F6000D0928B00C0928A0023C084B5806884BD73
:100F7000C7BC1EC080918000806880938000D092A2
:100F80008900C092880014C08091B000806880936E
:100F9000B000C092B3000CC08091B000806280931A
:100FA000B000C092B40004C060E085E00E94360149
:100FB0000E94D6016B017C0188EE482E83E0582EFA
:100FC000612C712C0E94D601DC01CB018C199D098A
:100FD000AE09BF09883E9340A105B10598F3F1E041
:100FE0004F1A51086108710828EEC20E23E0D21E84
:100FF000E11CF11C411451046104710419F70E94B1
:101000001A0304CEEF920F931F93CF93DF93E8015F
:1010100047FD02C034E001C034E1042E000C550B42
:1010200057FF03C0519541955109E32E022F242FFC
:10103000AE010E944708CE01DF91CF911F910F9121
:10104000EF900895BB274A3031F4992322F4BDE292
:10105000909581959F4F0C942E08BB27FB01552737
:10106000AA27880F991FAA1FA41710F0A41B839505
:101070005051B9F7A05DAA3308F0A95DA19300977C
:1010800079F7B111B1931192CB010C94790AA9E0CF
:10109000B0E0EDE4F8E00C94BC0B6A01122FB02E26
:1010A0002BE3201720F0FF24F394F00E02C02CE372
:1010B000F22E0F2D27E0AE014F5F5F4F0E94A10976
:1010C000BC014981842F8970813031F0E1FC06C078
:1010D000E0FE06C090E205C09DE203C09BE201C0B5
:1010E00090E05E2D507143FF3CC0911102C083E03F
:1010F00001C084E0811718F4212F281B01C020E0D3
:1011000051110BC0F601822F30E2882319F0319380
:101110008150FBCFC20ED11C20E0992329F0D601CB
:101120009C93F60131966F01C6010396E2FE0AC058
:101130003EE4D6013C9341E411964C9311971296EC
:101140003C9306C03EE6F601308341E6418332839C
:10115000FC01322F40E2332309F442C04193315065
:10116000FACF42FF44C0911102C083E001C084E085
:10117000811718F4212F281B01C020E051110BC04A
:10118000F601822F30E2882319F031938150FBCF92
:10119000C20ED11C20E0992329F0D6019C93F601C0
:1011A00031966F01C6010396E2FE0BC039E4D60109
:1011B0003C933EE411963C93119736E412963C938F
:1011C00007C039E6F60130833EE6318336E63283E6
:1011D000FC01322F40E2332319F041933150FBCF11
:1011E000FC01E20FF11D10828EEF9FEFA6C021E0FF
:1011F00030E0911102C020E030E0161617061CF412
:10120000FB01319602C0E1E0F0E02E0F3F1FBB2052
:1012100021F0EB2DF0E0319602C0E0E0F0E02E0F7F
:101220003F1FE12FF0E02E173F071CF4121B212F68
:1012300001C020E08E2D887159F4F601822F30E232
:10124000882319F031938150FBCFC20ED11C20E0CE
:10125000992329F0D6019C93F60131966F01511123
:101260000BC0F601822F90E3882319F091938150EF
:10127000FBCFC20ED11C20E00F2D060F9A81342F18
:10128000307144FF03C0913309F40150101624F467
:10129000093018F008E001C001E0AB0177FF02C09F
:1012A00040E050E0FB01E41BF50BA1E0B0E0AC0F27
:1012B000BD1FEA0FFB1F8EE2A82E4B01801A91087A
:1012C0000B2D10E01195019511094F3FBFEF5B0702
:1012D00021F4D601AC9211966D01641775072CF0BC
:1012E0008416950614F4818101C080E341505109B0
:1012F0003196D60111967D014017510724F0D60191
:101300008C936701E2CF6417750739F4963320F4A4
:10131000953319F4311101C081E3F6018083F7019F
:10132000822F90E2882319F091938150FBCFF7012F
:10133000E20FF11D108280E090E02996ECE00C9421
:10134000D80B283008F027E03327DA01990F311D38
:1013500087FD916000966105710539F432602E5F5A
:101360003D9330E32A95E1F708959F3F30F08038B0
:101370007105610509F03C5F3C5F3D93913008F0D9
:101380008068911DDF93CF931F930F93FF92EF928D
:10139000192F987F9695E92F96959695E90FFF2737
:1013A000E45EFE4F99273327EE24FF24A701E701CF
:1013B00005900894079428F4360FE71EF81E491F7D
:1013C000511D660F771F881F991F0694A1F705907E
:1013D000079428F4E70EF81E491F561FC11D770F0A
:1013E000881F991F661F0694A1F70590079428F49B
:1013F000F80E491F561FC71FD11D880F991F661F62
:10140000771F0694A1F70590079420F4490F561F03
:10141000C71FD81F990F661F771F881F0694A9F74B
:1014200084911095177041F0D695C79557954795BB
:10143000F794E7941A95C1F7E2ECF0E06894159000
:10144000159135916591959105907FE27395E1181D
:10145000F10A430B560BC90BD009C0F7E10CF11E82
:10146000431F561FC91FD01D7EF4703311F48A9597
:10147000E6CFE894015030F0080F0AF40027021775
:1014800008F4202F2395022F7A3328F079E37D93F7
:101490002A95E9F710C07D932A9589F606949795C9
:1014A0006795379517951794E118F10A430B560B7A
:1014B000C90BD00998F023957E9173957A3308F083
:1014C00070E37C932013B8F77E9170617D9330F0C8
:1014D000839571E37D9370E32A95E1F71124EF90F2
:1014E000FF900F911F91CF91DF91992787FD9095E4
:1014F0000895DC01FC01672F71917723E1F73297A2
:1015000004C07C916D9370836291AE17BF07C8F3DE
:101510000895E89409C097FB3EF4909580957095E6
:1015200061957F4F8F4F9F4F9923A9F0F92F96E92F
:10153000BB279395F695879577956795B795F111A4
:10154000F8CFFAF4BB0F11F460FF1BC06F5F7F4F41
:101550008F4F9F4F16C0882311F096E911C0772353
:1015600021F09EE8872F762F05C0662371F096E85C
:10157000862F70E060E02AF09A95660F771F881F2B
:10158000DAF7880F9695879597F908950E94D90AFA
:101590000C944A0B0E943C0B38F00E94430B20F045
:1015A000952311F00C94330B0C94390B11240C94EB
:1015B0007E0B0E945B0B70F3959FC1F3950F50E07B
:1015C000551F629FF001729FBB27F00DB11D639FF5
:1015D000AA27F00DB11DAA1F649F6627B00DA11D9B
:1015E000661F829F2227B00DA11D621F739FB00D41
:1015F000A11D621F839FA00D611D221F749F3327B1
:10160000A00D611D231F849F600D211D822F762F49
:101610006A2F11249F5750409AF0F1F088234AF026
:10162000EE0FFF1FBB1F661F771F881F9150504092
:10163000A9F79E3F510580F00C94330B0C947E0B60
:101640005F3FE4F3983ED4F3869577956795B79519
:10165000F795E7959F5FC1F7FE2B880F911D969533
:10166000879597F9089597F99F6780E870E060E0A3
:1016700008959FEF80EC089500240A94161617062B
:1016800018060906089500240A9412161306140673
:1016900005060895092E0394000C11F4882352F0D6
:1016A000BB0F40F4BF2B11F460FF04C06F5F7F4F8E
:1016B0008F4F9F4F089557FD9058440F551F59F075
:1016C0005F3F71F04795880F97FB991F61F09F3F2F
:1016D00079F087950895121613061406551FF2CF58
:1016E0004695F1DF08C0161617061806991FF1CFA8
:1016F00086957105610508940895E894BB276627CF
:101700007727CB0197F90895052E97FB1EF40094D7
:101710000E949B0B57FD07D00E94ED0B07FC03D0E6
:101720004EF40C949B0B50954095309521953F4F6E
:101730004F4F5F4F089590958095709561957F4FBD
:101740008F4F9F4F08950E940F0CA59F900DB49F3F
:10175000900DA49F800D911D11240895B7FF0C9446
:10176000A30B0E94A30B821B930B08952F923F9211
:101770004F925F926F927F928F929F92AF92BF92A1
:10178000CF92DF92EF92FF920F931F93CF93DF934D
:10179000CDB7DEB7CA1BDB0B0FB6F894DEBF0FBEAA
:1017A000CDBF09942A88398848885F846E847D84F7
:1017B0008C849B84AA84B984C884DF80EE80FD80F9
:1017C0000C811B81AA81B981CE0FD11D0FB6F8946F
:1017D000DEBF0FBECDBFED010895A1E21A2EAA1BF8
:1017E000BB1BFD010DC0AA1FBB1FEE1FFF1FA217D1
:1017F000B307E407F50720F0A21BB30BE40BF50BCE
:10180000661F771F881F991F1A9469F76095709556
:10181000809590959B01AC01BD01CF010895A29FD9
:10182000B001B39FC001A39F700D811D1124911DB4
:10183000B29F700D811D1124911D08955058BB2732
:10184000AA270E94360C0C944A0B0E943C0B38F0DD
:101850000E94430B20F039F49F3F19F426F40C94B6
:10186000390B0EF4E095E7FB0C94330BE92F0E9443
:101870005B0B58F3BA17620773078407950720F0CC
:1018800079F4A6F50C947D0B0EF4E0950B2EBA2F8F
:10189000A02D0B01B90190010C01CA01A001112476
:1018A000FF27591B99F0593F50F4503E68F11A1622
:1018B000F040A22F232F342F4427585FF3CF4695B3
:1018C00037952795A795F0405395C9F77EF41F16D5
:1018D000BA0B620B730B840BBAF09150A1F0FF0F9F
:1018E000BB1F661F771F881FC2F70EC0BA0F621F8B
:1018F000731F841F48F4879577956795B795F7957B
:101900009E3F08F0B0CF9395880F08F09927EE0F0F
:101910009795879508950E949F0C0C944A0B0E94FE
:10192000430B58F00E943C0B40F029F45F3F29F034
:101930000C94330B51110C947E0B0C94390B0E94B8
:101940005B0B68F39923B1F3552391F3951B550B6A
:10195000BB27AA2762177307840738F09F5F5F4F82
:10196000220F331F441FAA1FA9F335D00E2E3AF0C1
:10197000E0E832D091505040E695001CCAF72BD0D9
:10198000FE2F29D0660F771F881FBB1F261737072A
:101990004807AB07B0E809F0BB0B802DBF01FF275C
:1019A00093585F4F3AF09E3F510578F00C94330BFB
:1019B0000C947E0B5F3FE4F3983ED4F386957795C5
:1019C0006795B795F7959F5FC9F7880F911D969515
:1019D000879597F90895E1E0660F771F881FBB1F71
:1019E000621773078407BA0720F0621B730B840B1E
:1019F000BA0BEE1F88F7E095089516F00C944D0D84
:101A00000C94390B68940C94330B0E94630BA8F36D
:101A10009923C1F3AEF3DF93CF931F930F93FF92FC
:101A2000C92FDD2788232AF02197660F771F881F8B
:101A3000DAF720E030E040E85FEB9FE3883920F000
:101A4000803E38F021968F770E941F0CE8E6F0E088
:101A500004C00E941F0CE5E9F0E00E945B0D8B01C1
:101A6000BE01EC01FB2E6F5771097595771F880B2E
:101A7000990B0E948B0A28E132E741E35FE30E9461
:101A8000D90AAF2D9801AE01FF900F911F91CF9110
:101A9000DF910E94360C0C944A0B9F3F31F091501D
:101AA00020F4879577956795B795880F911D969542
:101AB000879597F90895DF93CF931F930F93FF9224
:101AC000EF92DF927B018C01689406C0DA2EEF0161
:101AD0000E94D90AFE01E894A5912591359145917E
:101AE0005591A6F3EF010E94360CFE019701A80163
:101AF000DA9469F7DF90EF90FF900F911F91CF91EB
:101B0000DF9108950E940F0CB7FF0895821B930B7D
:101B10000895EE0FFF1F0590F491E02D09940F93A7
:101B20001F93CF93DF938230910510F482E090E011
:101B3000E091F801F091F90120E030E0A0E0B0E0A0
:101B4000309719F14081518102811381481759075B
:101B5000C8F08417950769F4109731F012960C932A
:101B6000129713961C9327C00093F8011093F90164
:101B700022C02115310519F04217530718F49A01B4
:101B8000BD01EF01DF01F801DBCF21153105F9F0CF
:101B9000281B390B2430310580F48A819B81611523
:101BA000710521F0FB019383828304C09093F901B6
:101BB0008093F801FE01329644C0FE01E20FF31F4C
:101BC0008193919322503109398328833AC020911F
:101BD000F6013091F701232B41F42091020130915D
:101BE00003013093F7012093F60120910001309119
:101BF00001012115310541F42DB73EB74091040193
:101C000050910501241B350BE091F601F091F7018D
:101C1000E217F307A0F42E1B3F0B2817390778F0C3
:101C2000AC014E5F5F4F2417350748F04E0F5F1F22
:101C30005093F7014093F6018193919302C0E0E045
:101C4000F0E0CF01DF91CF911F910F910895CF93D5
:101C5000DF93009709F481C0FC013297138212824E
:101C6000A091F801B091F901109781F420813181A0
:101C7000820F931F2091F6013091F7012817390741
:101C800051F5F093F701E093F60167C0ED0120E014
:101C900030E0CE17DF0740F44A815B819E01411599
:101CA0005105F1F0EA01F5CFD383C2834081518120
:101CB000840F951FC817D90759F488819981840F1B
:101CC000951F0296918380838A819B81938382836F
:101CD0002115310529F4F093F901E093F8013DC095
:101CE000E901FB83EA8349915991C40FD51FEC1791
:101CF000FD0761F480819181840F951F0296E901AF
:101D000099838883828193819B838A83E0E0F0E0DA
:101D100012968D919C911397009719F0FD01DC01AB
:101D2000F7CF8D919C9111979D012E5F3F4F820FB0
:101D3000931F2091F6013091F7012817390769F4B4
:101D4000309729F41092F9011092F80102C0138221
:101D50001282B093F701A093F601DF91CF9108951D
:101D6000A0E0B0E0E6EBFEE00C94BA0BEC010097CB
:101D700021F4CB010E948F0DB4C0FC01E60FF71FC8
:101D80009C0122503109E217F30708F4A8C0D901D9
:101D90000D911C91119706171707B0F0053011052A
:101DA00008F49BC0C80104978617970708F495C0EC
:101DB00002501109061B170B019311936D937C932D
:101DC000CF010E94270E89C05B01A01AB10A4C0105
:101DD000800E911EA091F801B091F901612C712C37
:101DE000E12CF12C109709F446C08D919C9111972C
:101DF000A815B905B1F56C0142E0C40ED11CCA1496
:101E0000DB0478F14C018A189B08640142E0C40E9F
:101E1000D11C1296BC9012971396AC91B5E0CB16DC
:101E2000D10440F0B282A38391828082D9016D9364
:101E30007C9309C00E5F1F4F800F911FF9019183A2
:101E40008083EB2DFA2FE114F10431F0D7011396C2
:101E5000FC93EE93129741C0F093F901E093F801DF
:101E60003CC06816790608F43C017D0112960D907D
:101E7000BC91A02DB7CF8091F6019091F701881603
:101E80009906E1F466167706C8F4809100019091F6
:101E90000101009741F48DB79EB740910401509124
:101EA0000501841B950BE817F907C8F4F093F701B7
:101EB000E093F601F901718360830FC0CB010E94AA
:101EC0008F0D7C01009759F0A801BE010E947B0F85
:101ED000CE010E94270EC70104C0CE0102C080E0DF
:101EE00090E0CDB7DEB7EEE00C94D60B81E090E049
:101EF000F8940C948B0FFB01DC0102C001900D9251
:101F000041505040D8F70895FB01DC0101900D923B
:0A1F10000020E1F70895F894FFCFD8
:101F1A000000FA01800000000000AB02FB0142024F
:101F2A00F8027302510265020D0A0020636D004433
:101F3A00697374C3A26E6369613A200054656D7057
:101F4A00657261747572613A20002500556D696485
:061F5A006164653A2000FD
:00000001FF
